:020000040000FA
:1000000018F09FE518F09FE518F09FE518F09FE5C0
:1000100018F09FE50000A0E1F0FF1FE518F09FE554
:1000200040000000A4060000A00600009C0600009E
:1000300098060000000000009406000090060000F2
:10004000B0009FE5AA10A0E35520A0E32430A0E370
:10005000043080E50130A0E3003080E50C1080E53D
:100060000C2080E5083090E5013B13E2FCFFFF0A1D
:100070000330A0E3003080E50C1080E50C2080E523
:1000800074009FE50410A0E3041080E50210A0E3D3
:10009000001080E564009FE5DBF021E300D0A0E1E3
:1000A000040040E2D7F021E300D0A0E1040040E2E8
:1000B000D1F021E300D0A0E1040040E2D2F021E33E
:1000C00000D0A0E1800040E2D3F021E300D0A0E125
:1000D000040040E210F021E300D0A0E120009FE501
:1000E000010010E31CE09F051CE09F1510FF2FE1AD
:1000F000FEFFFFEAFEE7C04680C01FE000C01FE031
:100100009004004075050000F0000000F5000000BC
:1001100053434E5F434F4D504C0053434E5F535437
:0E012000415254002E2E2E2E2E2E2E2E2E004C
:100130009004004094040040000000000000000013
:1001400000000000000000000009002206490A60CB
:1001500003E005490A6801320A60021C0249096885
:100160009142F6D97047C0469004004000B5011C8A
:10017000024801600120FFF7E7FF00BD1C8002E09C
:1001800000B5011C024801600120FFF7DDFF00BD42
:10019000148002E000B50B1C191C021C0A40054922
:1001A0000A601A1C011C9143034801600120FFF7FB
:1001B000CBFF00BD148002E01C8002E000B5011CF2
:1001C0000F4802680F4802430D480260081C0106F0
:1001D000090E09040C48FFF7DDFF0C48FFF7C6FFC6
:1001E0000120FFF7B1FF0A48FFF7CAFF0120FFF720
:1001F000ABFF0748FFF7BAFF0120FFF7A5FF00BDDF
:10020000188002E00000FF030000FF000000000271
:100210000000000100B5011C0F4802680F480243AE
:100220000D480260081C0106090E09040C48FFF77E
:10023000B1FF0C48FFF7A4FF0120FFF785FF0A4834
:10024000FFF79EFF0120FFF77FFF0748FFF78EFFB4
:100250000120FFF779FF00BD188002E00000FF03D6
:100260000000FF00000000020000000110B524485B
:10027000016824480143224801602348FFF764FFD6
:10028000002418E021482249FFF784FF2148FFF7A6
:100290006DFF0120FFF758FF1F48FFF771FF012096
:1002A000FFF752FF1C48FFF761FF1C48FFF74CFFA8
:1002B00001342406240E201C0006000E0328E1DB76
:1002C0003820FFF77BFF1548FFF73EFF0C20FFF7B4
:1002D00075FF1248FFF738FF1420FFF76FFF0F4834
:1002E000FFF732FF0120FFF769FF0C48FFF72CFFF3
:1002F0000620FFF763FF0948FFF726FF10BDC04641
:10030000188002E00000FF03204E00000000FF0004
:10031000000002000000000200000001881300003D
:100320000020002101310A1C044B9A42FAD301300B
:10033000011C034A9142F4D37047C046D204000026
:10034000D00700000020002101310A1C044B9A4212
:10035000FAD30130011C034A9142F4D37047C046DE
:10036000D20400009001000030B5051C002480205C
:10037000FFF724FF0948FFF7E7FE0024211C281C93
:10038000405C002808D0FFF745FF0448FFF7DCFE7B
:100390000134201C0A28F1DB30BDC0468813000060
:1003A00000B5011C081C00F085F9021C101C642813
:1003B00001DC4120A7E0101CC82801DC4220A2E09B
:1003C000101C5149884201DC43209CE0101C4F491D
:1003D000884201DC442096E0101C4D49884201DC33
:1003E000452090E0101C4B49884201DC46208AE001
:1003F000101C4949884201DC472084E0101C474911
:10040000884201DC48207EE0101C4549884201DC1E
:10041000492078E0101C4349884201DC4A2072E000
:10042000101C4149884201DC4B206CE0101C3F4904
:10043000884201DC4C2066E0101C3D49884201DC0A
:100440004D2060E0101C3B49884201DC4E205AE000
:10045000101C3949884201DC4F2054E0101C3749F8
:10046000884201DC50204EE0101C3549884201DCF6
:10047000512048E0101C3349884201DC522042E000
:10048000101C3149884201DC53203CE0101C2F49EC
:10049000884201DC542036E0101C2D49884201DCE2
:1004A000552030E0101C2B49884201DC56202AE000
:1004B000101C2949884201DC572024E0101C2749E0
:1004C000884201DC58201EE0101C2549884201DCCE
:1004D000592018E0101C2349884201DC5A2012E000
:1004E000101C2149884201DC31200CE0101C1F49FE
:1004F000884201DC322006E0101C1D49884201DCE4
:10050000332000E0232000BD2C01000090010000FA
:10051000F401000058020000BC02000020030000AB
:1005200084030000E80300004C040000B004000055
:100530001405000078050000DC05000040060000FE
:10054000A4060000080700006C070000D0070000A8
:100550003408000098080000FC0800006009000052
:10056000C4090000280A00008C0A0000F00A0000FC
:10057000B80B0000394806C80B1C134305D00023F4
:100580000B70491C9142FBD1F5E73548C01C032391
:10059000984306C80B1C134306D00378401C0B700D
:1005A000491C9142F9D1F1E700B584B00A242D49E4
:1005B0002D480160FFF75AFE2C48FFF7D5FE2C4866
:1005C000FFF7D2FEFFF7ACFEFFF7AAFEFFF7A8FE8B
:1005D00028492948016029480668301C28490842F2
:1005E000F9D1B60927490E40301C274A504300F084
:1005F000BBF8081C061C0325301C0A2100F0B4F8C7
:10060000011C30300006000E2A1C00A98854301C42
:100610000A2100F0A9F8081C061C013D281C00282E
:10062000EADA00A8FFF7BCFE221C032169448854C3
:10063000013CFFF787FE201C0028C7D11348FFF7B5
:1006400093FEFFF76DFEFFF76BFEFFF769FE01A853
:10065000FFF78AFE002004B000BDC0463001000054
:1006600040010000000C000000C002E02401000076
:100670001A01000080062001004003E02C4003E046
:1006800000000080FF030000E40C000010010000E7
:10069000FEFFFFEAFEFFFFEAFEFFFFEAFEFFFFEAC2
:1006A000FEFFFFEAFEFFFFEA00C09FE51CFF2FE10F
:1006B000B506000010B5041C00E00134201C0078D1
:1006C00000F044F80028F8D10123201C00782B28E2
:1006D00001D02D2808D1201C013400782D2802D00B
:1006E0000120031C00E00023002206E0201C00780B
:1006F00030380A214A4312180134201C007800F0D7
:1007000013F80028F2D1181C002801D0101C01E0B9
:10071000101C404210BC08BC1847C04600C09FE5F2
:100720001CFF2FE129070000011C081C302804DBF6
:10073000081C3A2801DA012000E000207047C0467A
:1007400000C09FE51CFF2FE14D070000011C081CA5
:10075000092802DB081C0E2802DB081C202801D116
:10076000012000E0002070477847C04600C0A0E3A9
:100770000180B0E10A00000AA00058E18880A09141
:10078000FCFFFF3A080050E10CC0ACE0080040203C
:10079000010038E1A880A011F9FFFF1A0C10A0E1B8
:1007A0001EFF2FE10010E0E30000A0E31EFF2FE199
:00000001FF
